{
  "contractName": "Arbitrage",
  "abi": [
    {
      "inputs": [
        {
          "internalType": "address",
          "name": "_sRouter",
          "type": "address"
        },
        {
          "internalType": "address",
          "name": "_uRouter",
          "type": "address"
        },
        {
          "internalType": "address",
          "name": "_pRouter",
          "type": "address"
        }
      ],
      "stateMutability": "nonpayable",
      "type": "constructor"
    },
    {
      "anonymous": false,
      "inputs": [
        {
          "indexed": false,
          "internalType": "string",
          "name": "message",
          "type": "string"
        },
        {
          "indexed": false,
          "internalType": "uint256",
          "name": "balanceBefore",
          "type": "uint256"
        },
        {
          "indexed": false,
          "internalType": "uint256",
          "name": "balanceAfter",
          "type": "uint256"
        }
      ],
      "name": "Log",
      "type": "event"
    },
    {
      "inputs": [],
      "name": "WETH",
      "outputs": [
        {
          "internalType": "address",
          "name": "",
          "type": "address"
        }
      ],
      "stateMutability": "view",
      "type": "function",
      "constant": true
    },
    {
      "inputs": [
        {
          "internalType": "address",
          "name": "",
          "type": "address"
        }
      ],
      "name": "currencies",
      "outputs": [
        {
          "internalType": "uint256",
          "name": "",
          "type": "uint256"
        }
      ],
      "stateMutability": "view",
      "type": "function",
      "constant": true
    },
    {
      "inputs": [],
      "name": "owner",
      "outputs": [
        {
          "internalType": "address",
          "name": "",
          "type": "address"
        }
      ],
      "stateMutability": "view",
      "type": "function",
      "constant": true
    },
    {
      "inputs": [],
      "name": "pRouter",
      "outputs": [
        {
          "internalType": "contract IUniswapV2Router02",
          "name": "",
          "type": "address"
        }
      ],
      "stateMutability": "view",
      "type": "function",
      "constant": true
    },
    {
      "inputs": [
        {
          "internalType": "address",
          "name": "token",
          "type": "address"
        },
        {
          "internalType": "uint256",
          "name": "marketId",
          "type": "uint256"
        }
      ],
      "name": "registerTokens",
      "outputs": [],
      "stateMutability": "nonpayable",
      "type": "function"
    },
    {
      "inputs": [],
      "name": "sRouter",
      "outputs": [
        {
          "internalType": "contract IUniswapV2Router02",
          "name": "",
          "type": "address"
        }
      ],
      "stateMutability": "view",
      "type": "function",
      "constant": true
    },
    {
      "inputs": [
        {
          "internalType": "address",
          "name": "token",
          "type": "address"
        }
      ],
      "name": "tokenToMarketId",
      "outputs": [
        {
          "internalType": "uint256",
          "name": "",
          "type": "uint256"
        }
      ],
      "stateMutability": "view",
      "type": "function",
      "constant": true
    },
    {
      "inputs": [],
      "name": "uRouter",
      "outputs": [
        {
          "internalType": "contract IUniswapV2Router02",
          "name": "",
          "type": "address"
        }
      ],
      "stateMutability": "view",
      "type": "function",
      "constant": true
    },
    {
      "inputs": [
        {
          "internalType": "bool",
          "name": "_startOnUniswap",
          "type": "bool"
        },
        {
          "internalType": "bool",
          "name": "_startOnPancakeswap",
          "type": "bool"
        },
        {
          "internalType": "address",
          "name": "_token0",
          "type": "address"
        },
        {
          "internalType": "address",
          "name": "_token1",
          "type": "address"
        },
        {
          "internalType": "uint256",
          "name": "_flashAmount",
          "type": "uint256"
        }
      ],
      "name": "executeTrade",
      "outputs": [],
      "stateMutability": "nonpayable",
      "type": "function"
    },
    {
      "inputs": [
        {
          "internalType": "address",
          "name": "",
          "type": "address"
        },
        {
          "components": [
            {
              "internalType": "address",
              "name": "owner",
              "type": "address"
            },
            {
              "internalType": "uint256",
              "name": "number",
              "type": "uint256"
            }
          ],
          "internalType": "struct Structs.Info",
          "name": "",
          "type": "tuple"
        },
        {
          "internalType": "bytes",
          "name": "data",
          "type": "bytes"
        }
      ],
      "name": "callFunction",
      "outputs": [],
      "stateMutability": "nonpayable",
      "type": "function"
    }
  ],
  "bytecode": "0x60e0604052731e0447b19bb6ecfdae1e4ae1694b0c3659614e4e6000806101000a81548173ffffffffffffffffffffffffffffffffffffffff021916908373ffffffffffffffffffffffffffffffffffffffff16021790555073c02aaa39b223fe8d0a0e5c4f27ead9083c756cc2600260006101000a81548173ffffffffffffffffffffffffffffffffffffffff021916908373ffffffffffffffffffffffffffffffffffffffff160217905550348015620000ba57600080fd5b5060405162002d8538038062002d858339818101604052810190620000e09190620002d8565b33600160006101000a81548173ffffffffffffffffffffffffffffffffffffffff021916908373ffffffffffffffffffffffffffffffffffffffff160217905550600160036000600260009054906101000a900473ffffffffffffffffffffffffffffffffffffffff1673ffffffffffffffffffffffffffffffffffffffff1673ffffffffffffffffffffffffffffffffffffffff168152602001908152602001600020819055508273ffffffffffffffffffffffffffffffffffffffff1660808173ffffffffffffffffffffffffffffffffffffffff16815250508173ffffffffffffffffffffffffffffffffffffffff1660a08173ffffffffffffffffffffffffffffffffffffffff16815250508073ffffffffffffffffffffffffffffffffffffffff1660c08173ffffffffffffffffffffffffffffffffffffffff168152505033600160006101000a81548173ffffffffffffffffffffffffffffffffffffffff021916908373ffffffffffffffffffffffffffffffffffffffff16021790555050505062000334565b600080fd5b600073ffffffffffffffffffffffffffffffffffffffff82169050919050565b6000620002a08262000273565b9050919050565b620002b28162000293565b8114620002be57600080fd5b50565b600081519050620002d281620002a7565b92915050565b600080600060608486031215620002f457620002f36200026e565b5b60006200030486828701620002c1565b93505060206200031786828701620002c1565b92505060406200032a86828701620002c1565b9150509250925092565b60805160a05160c0516129f76200038e6000396000818161031e015281816115e701526116b70152600081816102130152818161124301526113130152600081816101ef0152818161141501526114e501526129f76000f3fe608060405234801561001057600080fd5b506004361061009e5760003560e01c806389c966c51161006657806389c966c5146101495780638b418713146101655780638da5cb5b14610181578063ad5c46481461019f578063b8268788146101bd5761009e565b8063017c64b0146100a35780635cf39049146100c15780636036cba3146100df57806372516ecd1461010f5780637ea450241461012b575b600080fd5b6100ab6101ed565b6040516100b891906118ee565b60405180910390f35b6100c9610211565b6040516100d691906118ee565b60405180910390f35b6100f960048036038101906100f4919061195b565b610235565b60405161010691906119a1565b60405180910390f35b61012960048036038101906101249190611a20565b61024d565b005b61013361031c565b60405161014091906118ee565b60405180910390f35b610163600480360381019061015e9190611a9b565b610340565b005b61017f600480360381019061017a9190611b64565b610418565b005b610189610c19565b6040516101969190611be7565b60405180910390f35b6101a7610c3f565b6040516101b49190611be7565b60405180910390f35b6101d760048036038101906101d2919061195b565b610c65565b6040516101e491906119a1565b60405180910390f35b7f000000000000000000000000000000000000000000000000000000000000000081565b7f000000000000000000000000000000000000000000000000000000000000000081565b60036020528060005260406000206000915090505481565b60008373ffffffffffffffffffffffffffffffffffffffff166370a08231306040518263ffffffff1660e01b81526004016102889190611be7565b60206040518083038186803b1580156102a057600080fd5b505afa1580156102b4573d6000803e3d6000fd5b505050506040513d601f19601f820116820180604052508101906102d89190611c17565b905060008686868686866040516020016102f796959493929190611c53565b6040516020818303038152906040529050610313858483610d03565b50505050505050565b7f000000000000000000000000000000000000000000000000000000000000000081565b600160009054906101000a900473ffffffffffffffffffffffffffffffffffffffff1673ffffffffffffffffffffffffffffffffffffffff163373ffffffffffffffffffffffffffffffffffffffff16146103d0576040517f08c379a00000000000000000000000000000000000000000000000000000000081526004016103c790611d11565b60405180910390fd5b80600360008473ffffffffffffffffffffffffffffffffffffffff1673ffffffffffffffffffffffffffffffffffffffff168152602001908152602001600020819055505050565b60008054906101000a900473ffffffffffffffffffffffffffffffffffffffff1673ffffffffffffffffffffffffffffffffffffffff163373ffffffffffffffffffffffffffffffffffffffff16146104a6576040517f08c379a000000000000000000000000000000000000000000000000000000000815260040161049d90611da3565b60405180910390fd5b60008060008060008087878101906104be9190611e01565b95509550955095509550955060008473ffffffffffffffffffffffffffffffffffffffff166370a08231306040518263ffffffff1660e01b81526004016105059190611be7565b60206040518083038186803b15801561051d57600080fd5b505afa158015610531573d6000803e3d6000fd5b505050506040513d601f19601f820116820180604052508101906105559190611c17565b90508282826105649190611ebd565b146105a4576040517f08c379a000000000000000000000000000000000000000000000000000000000815260040161059b90611f3d565b60405180910390fd5b7fc72c11333761a47423f2cbe54eda92b59b0b5977a444194492fe47f41b3c0ab482826040516105d5929190611fa9565b60405180910390a16000600267ffffffffffffffff8111156105fa576105f9611fe5565b5b6040519080825280602002602001820160405280156106285781602001602082028036833780820191505090505b50905085816000815181106106405761063f612014565b5b602002602001019073ffffffffffffffffffffffffffffffffffffffff16908173ffffffffffffffffffffffffffffffffffffffff1681525050848160018151811061068f5761068e612014565b5b602002602001019073ffffffffffffffffffffffffffffffffffffffff16908173ffffffffffffffffffffffffffffffffffffffff1681525050871561081d576106db8185600061120a565b84816000815181106106f0576106ef612014565b5b602002602001019073ffffffffffffffffffffffffffffffffffffffff16908173ffffffffffffffffffffffffffffffffffffffff1681525050858160018151811061073f5761073e612014565b5b602002602001019073ffffffffffffffffffffffffffffffffffffffff16908173ffffffffffffffffffffffffffffffffffffffff1681525050610818818673ffffffffffffffffffffffffffffffffffffffff166370a08231306040518263ffffffff1660e01b81526004016107b69190611be7565b60206040518083038186803b1580156107ce57600080fd5b505afa1580156107e2573d6000803e3d6000fd5b505050506040513d601f19601f820116820180604052508101906108069190611c17565b6001876108139190612043565b6113dc565b610abc565b86156109715761082f818560006115ae565b848160008151811061084457610843612014565b5b602002602001019073ffffffffffffffffffffffffffffffffffffffff16908173ffffffffffffffffffffffffffffffffffffffff1681525050858160018151811061089357610892612014565b5b602002602001019073ffffffffffffffffffffffffffffffffffffffff16908173ffffffffffffffffffffffffffffffffffffffff168152505061096c818673ffffffffffffffffffffffffffffffffffffffff166370a08231306040518263ffffffff1660e01b815260040161090a9190611be7565b60206040518083038186803b15801561092257600080fd5b505afa158015610936573d6000803e3d6000fd5b505050506040513d601f19601f8201168201806040525081019061095a9190611c17565b6001876109679190612043565b61120a565b610abb565b61097d818560006113dc565b848160008151811061099257610991612014565b5b602002602001019073ffffffffffffffffffffffffffffffffffffffff16908173ffffffffffffffffffffffffffffffffffffffff168152505085816001815181106109e1576109e0612014565b5b602002602001019073ffffffffffffffffffffffffffffffffffffffff16908173ffffffffffffffffffffffffffffffffffffffff1681525050610aba818673ffffffffffffffffffffffffffffffffffffffff166370a08231306040518263ffffffff1660e01b8152600401610a589190611be7565b60206040518083038186803b158015610a7057600080fd5b505afa158015610a84573d6000803e3d6000fd5b505050506040513d601f19601f82011682018060405250810190610aa89190611c17565b600187610ab59190612043565b61120a565b5b5b8573ffffffffffffffffffffffffffffffffffffffff1663a9059cbb600160009054906101000a900473ffffffffffffffffffffffffffffffffffffffff16600187610b089190612043565b8973ffffffffffffffffffffffffffffffffffffffff166370a08231306040518263ffffffff1660e01b8152600401610b419190611be7565b60206040518083038186803b158015610b5957600080fd5b505afa158015610b6d573d6000803e3d6000fd5b505050506040513d601f19601f82011682018060405250810190610b919190611c17565b610b9b9190611ebd565b6040518363ffffffff1660e01b8152600401610bb8929190612099565b602060405180830381600087803b158015610bd257600080fd5b505af1158015610be6573d6000803e3d6000fd5b505050506040513d601f19601f82011682018060405250810190610c0a91906120d7565b50505050505050505050505050565b600160009054906101000a900473ffffffffffffffffffffffffffffffffffffffff1681565b600260009054906101000a900473ffffffffffffffffffffffffffffffffffffffff1681565b600080600360008473ffffffffffffffffffffffffffffffffffffffff1673ffffffffffffffffffffffffffffffffffffffff1681526020019081526020016000205490506000811415610cee576040517f08c379a0000000000000000000000000000000000000000000000000000000008152600401610ce590612150565b60405180910390fd5b600181610cfb9190611ebd565b915050919050565b8273ffffffffffffffffffffffffffffffffffffffff1663095ea7b360008054906101000a900473ffffffffffffffffffffffffffffffffffffffff16600185610d4d9190612043565b6040518363ffffffff1660e01b8152600401610d6a929190612099565b602060405180830381600087803b158015610d8457600080fd5b505af1158015610d98573d6000803e3d6000fd5b505050506040513d601f19601f82011682018060405250810190610dbc91906120d7565b506000600167ffffffffffffffff811115610dda57610dd9611fe5565b5b604051908082528060200260200182016040528015610e1357816020015b610e00611780565b815260200190600190039081610df85790505b5090506000600367ffffffffffffffff811115610e3357610e32611fe5565b5b604051908082528060200260200182016040528015610e6c57816020015b610e596117b0565b815260200190600190039081610e515790505b50905060405180604001604052803073ffffffffffffffffffffffffffffffffffffffff168152602001600081525082600081518110610eaf57610eae612014565b5b602002602001018190525060006040518060800160405280600015158152602001600080811115610ee357610ee2612170565b5b8152602001600080811115610efb57610efa612170565b5b8152602001868152509050610f0e6117b0565b600181600001906008811115610f2757610f26612170565b5b90816008811115610f3b57610f3a612170565b5b815250506000816020018181525050818160400181905250610f5c87610c65565b816060018181525050308160a0019073ffffffffffffffffffffffffffffffffffffffff16908173ffffffffffffffffffffffffffffffffffffffff16815250508083600081518110610fb257610fb1612014565b5b6020026020010181905250610fc56117b0565b600881600001906008811115610fde57610fdd612170565b5b90816008811115610ff257610ff1612170565b5b815250506000816020018181525050308160a0019073ffffffffffffffffffffffffffffffffffffffff16908173ffffffffffffffffffffffffffffffffffffffff1681525050858160e00181905250808460018151811061105757611056612014565b5b602002602001018190525061106a6117b0565b6000604051806080016040528060011515815260200160008081111561109357611092612170565b5b81526020016000808111156110ab576110aa612170565b5b815260200160018b6110bd9190612043565b81525090506000826000019060088111156110db576110da612170565b5b908160088111156110ef576110ee612170565b5b8152505060008260200181815250508082604001819052506111108a610c65565b826060018181525050308260a0019073ffffffffffffffffffffffffffffffffffffffff16908173ffffffffffffffffffffffffffffffffffffffff1681525050818660028151811061116657611165612014565b5b602002602001018190525060008054906101000a900473ffffffffffffffffffffffffffffffffffffffff1673ffffffffffffffffffffffffffffffffffffffff1663a67a6a4588886040518363ffffffff1660e01b81526004016111cc9291906125e5565b600060405180830381600087803b1580156111e657600080fd5b505af11580156111fa573d6000803e3d6000fd5b5050505050505050505050505050565b8260008151811061121e5761121d612014565b5b602002602001015173ffffffffffffffffffffffffffffffffffffffff1663095ea7b37f0000000000000000000000000000000000000000000000000000000000000000846040518363ffffffff1660e01b8152600401611280929190612099565b602060405180830381600087803b15801561129a57600080fd5b505af11580156112ae573d6000803e3d6000fd5b505050506040513d601f19601f820116820180604052508101906112d291906120d7565b611311576040517f08c379a000000000000000000000000000000000000000000000000000000000815260040161130890612668565b60405180910390fd5b7f000000000000000000000000000000000000000000000000000000000000000073ffffffffffffffffffffffffffffffffffffffff166338ed1739838386306104b04261135f9190612043565b6040518663ffffffff1660e01b815260040161137f959493929190612737565b600060405180830381600087803b15801561139957600080fd5b505af11580156113ad573d6000803e3d6000fd5b505050506040513d6000823e3d601f19601f820116820180604052508101906113d691906128a0565b50505050565b826000815181106113f0576113ef612014565b5b602002602001015173ffffffffffffffffffffffffffffffffffffffff1663095ea7b37f0000000000000000000000000000000000000000000000000000000000000000846040518363ffffffff1660e01b8152600401611452929190612099565b602060405180830381600087803b15801561146c57600080fd5b505af1158015611480573d6000803e3d6000fd5b505050506040513d601f19601f820116820180604052508101906114a491906120d7565b6114e3576040517f08c379a00000000000000000000000000000000000000000000000000000000081526004016114da90612935565b60405180910390fd5b7f000000000000000000000000000000000000000000000000000000000000000073ffffffffffffffffffffffffffffffffffffffff166338ed1739838386306104b0426115319190612043565b6040518663ffffffff1660e01b8152600401611551959493929190612737565b600060405180830381600087803b15801561156b57600080fd5b505af115801561157f573d6000803e3d6000fd5b505050506040513d6000823e3d601f19601f820116820180604052508101906115a891906128a0565b50505050565b826000815181106115c2576115c1612014565b5b602002602001015173ffffffffffffffffffffffffffffffffffffffff1663095ea7b37f0000000000000000000000000000000000000000000000000000000000000000846040518363ffffffff1660e01b8152600401611624929190612099565b602060405180830381600087803b15801561163e57600080fd5b505af1158015611652573d6000803e3d6000fd5b505050506040513d601f19601f8201168201806040525081019061167691906120d7565b6116b5576040517f08c379a00000000000000000000000000000000000000000000000000000000081526004016116ac906129a1565b60405180910390fd5b7f000000000000000000000000000000000000000000000000000000000000000073ffffffffffffffffffffffffffffffffffffffff166338ed1739838386306104b0426117039190612043565b6040518663ffffffff1660e01b8152600401611723959493929190612737565b600060405180830381600087803b15801561173d57600080fd5b505af1158015611751573d6000803e3d6000fd5b505050506040513d6000823e3d601f19601f8201168201806040525081019061177a91906128a0565b50505050565b6040518060400160405280600073ffffffffffffffffffffffffffffffffffffffff168152602001600081525090565b604051806101000160405280600060088111156117d0576117cf612170565b5b8152602001600081526020016117e4611823565b81526020016000815260200160008152602001600073ffffffffffffffffffffffffffffffffffffffff16815260200160008152602001606081525090565b604051806080016040528060001515815260200160008081111561184a57611849612170565b5b815260200160008081111561186257611861612170565b5b8152602001600081525090565b600073ffffffffffffffffffffffffffffffffffffffff82169050919050565b6000819050919050565b60006118b46118af6118aa8461186f565b61188f565b61186f565b9050919050565b60006118c682611899565b9050919050565b60006118d8826118bb565b9050919050565b6118e8816118cd565b82525050565b600060208201905061190360008301846118df565b92915050565b6000604051905090565b600080fd5b600080fd5b60006119288261186f565b9050919050565b6119388161191d565b811461194357600080fd5b50565b6000813590506119558161192f565b92915050565b60006020828403121561197157611970611913565b5b600061197f84828501611946565b91505092915050565b6000819050919050565b61199b81611988565b82525050565b60006020820190506119b66000830184611992565b92915050565b60008115159050919050565b6119d1816119bc565b81146119dc57600080fd5b50565b6000813590506119ee816119c8565b92915050565b6119fd81611988565b8114611a0857600080fd5b50565b600081359050611a1a816119f4565b92915050565b600080600080600060a08688031215611a3c57611a3b611913565b5b6000611a4a888289016119df565b9550506020611a5b888289016119df565b9450506040611a6c88828901611946565b9350506060611a7d88828901611946565b9250506080611a8e88828901611a0b565b9150509295509295909350565b60008060408385031215611ab257611ab1611913565b5b6000611ac085828601611946565b9250506020611ad185828601611a0b565b9150509250929050565b600080fd5b600060408284031215611af657611af5611adb565b5b81905092915050565b600080fd5b600080fd5b600080fd5b60008083601f840112611b2457611b23611aff565b5b8235905067ffffffffffffffff811115611b4157611b40611b04565b5b602083019150836001820283011115611b5d57611b5c611b09565b5b9250929050565b60008060008060808587031215611b7e57611b7d611913565b5b6000611b8c87828801611946565b9450506020611b9d87828801611ae0565b935050606085013567ffffffffffffffff811115611bbe57611bbd611918565b5b611bca87828801611b0e565b925092505092959194509250565b611be18161191d565b82525050565b6000602082019050611bfc6000830184611bd8565b92915050565b600081519050611c11816119f4565b92915050565b600060208284031215611c2d57611c2c611913565b5b6000611c3b84828501611c02565b91505092915050565b611c4d816119bc565b82525050565b600060c082019050611c686000830189611c44565b611c756020830188611c44565b611c826040830187611bd8565b611c8f6060830186611bd8565b611c9c6080830185611992565b611ca960a0830184611992565b979650505050505050565b600082825260208201905092915050565b7f43616c6c6572206973206e6f7420746865206f776e6572000000000000000000600082015250565b6000611cfb601783611cb4565b9150611d0682611cc5565b602082019050919050565b60006020820190508181036000830152611d2a81611cee565b9050919050565b7f466c6173684c6f616e3a20636f756c642062652063616c6c656420627920447960008201527f447820706f6f6c206f6e6c790000000000000000000000000000000000000000602082015250565b6000611d8d602c83611cb4565b9150611d9882611d31565b604082019050919050565b60006020820190508181036000830152611dbc81611d80565b9050919050565b6000611dce8261186f565b9050919050565b611dde81611dc3565b8114611de957600080fd5b50565b600081359050611dfb81611dd5565b92915050565b60008060008060008060c08789031215611e1e57611e1d611913565b5b6000611e2c89828a016119df565b9650506020611e3d89828a016119df565b9550506040611e4e89828a01611dec565b9450506060611e5f89828a01611dec565b9350506080611e7089828a01611a0b565b92505060a0611e8189828a01611a0b565b9150509295509295509295565b7f4e487b7100000000000000000000000000000000000000000000000000000000600052601160045260246000fd5b6000611ec882611988565b9150611ed383611988565b925082821015611ee657611ee5611e8e565b5b828203905092915050565b7f636f6e747261637420646964206e6f742067657420746865206c6f616e000000600082015250565b6000611f27601d83611cb4565b9150611f3282611ef1565b602082019050919050565b60006020820190508181036000830152611f5681611f1a565b9050919050565b7f4265666f72652053776170000000000000000000000000000000000000000000600082015250565b6000611f93600b83611cb4565b9150611f9e82611f5d565b602082019050919050565b60006060820190508181036000830152611fc281611f86565b9050611fd16020830185611992565b611fde6040830184611992565b9392505050565b7f4e487b7100000000000000000000000000000000000000000000000000000000600052604160045260246000fd5b7f4e487b7100000000000000000000000000000000000000000000000000000000600052603260045260246000fd5b600061204e82611988565b915061205983611988565b9250827fffffffffffffffffffffffffffffffffffffffffffffffffffffffffffffffff0382111561208e5761208d611e8e565b5b828201905092915050565b60006040820190506120ae6000830185611bd8565b6120bb6020830184611992565b9392505050565b6000815190506120d1816119c8565b92915050565b6000602082840312156120ed576120ec611913565b5b60006120fb848285016120c2565b91505092915050565b7f466c6173684c6f616e3a20556e737570706f7274656420746f6b656e00000000600082015250565b600061213a601c83611cb4565b915061214582612104565b602082019050919050565b600060208201905081810360008301526121698161212d565b9050919050565b7f4e487b7100000000000000000000000000000000000000000000000000000000600052602160045260246000fd5b600081519050919050565b600082825260208201905092915050565b6000819050602082019050919050565b6121d48161191d565b82525050565b6121e381611988565b82525050565b6040820160008201516121ff60008501826121cb565b50602082015161221260208501826121da565b50505050565b600061222483836121e9565b60408301905092915050565b6000602082019050919050565b60006122488261219f565b61225281856121aa565b935061225d836121bb565b8060005b8381101561228e5781516122758882612218565b975061228083612230565b925050600181019050612261565b5085935050505092915050565b600081519050919050565b600082825260208201905092915050565b6000819050602082019050919050565b600981106122d8576122d7612170565b5b50565b60008190506122e9826122c7565b919050565b60006122f9826122db565b9050919050565b612309816122ee565b82525050565b612318816119bc565b82525050565b6001811061232f5761232e612170565b5b50565b60008190506123408261231e565b919050565b600061235082612332565b9050919050565b61236081612345565b82525050565b6001811061237757612376612170565b5b50565b600081905061238882612366565b919050565b60006123988261237a565b9050919050565b6123a88161238d565b82525050565b6080820160008201516123c4600085018261230f565b5060208201516123d76020850182612357565b5060408201516123ea604085018261239f565b5060608201516123fd60608501826121da565b50505050565b600081519050919050565b600082825260208201905092915050565b60005b8381101561243d578082015181840152602081019050612422565b8381111561244c576000848401525b50505050565b6000601f19601f8301169050919050565b600061246e82612403565b612478818561240e565b935061248881856020860161241f565b61249181612452565b840191505092915050565b6000610160830160008301516124b56000860182612300565b5060208301516124c860208601826121da565b5060408301516124db60408601826123ae565b5060608301516124ee60c08601826121da565b50608083015161250160e08601826121da565b5060a08301516125156101008601826121cb565b5060c08301516125296101208601826121da565b5060e08301518482036101408601526125428282612463565b9150508091505092915050565b600061255b838361249c565b905092915050565b6000602082019050919050565b600061257b8261229b565b61258581856122a6565b935083602082028501612597856122b7565b8060005b858110156125d357848403895281516125b4858261254f565b94506125bf83612563565b925060208a0199505060018101905061259b565b50829750879550505050505092915050565b600060408201905081810360008301526125ff818561223d565b905081810360208301526126138184612570565b90509392505050565b7f556e697377617020617070726f76616c206661696c65642e0000000000000000600082015250565b6000612652601883611cb4565b915061265d8261261c565b602082019050919050565b6000602082019050818103600083015261268181612645565b9050919050565b600081519050919050565b600082825260208201905092915050565b6000819050602082019050919050565b60006126c083836121cb565b60208301905092915050565b6000602082019050919050565b60006126e482612688565b6126ee8185612693565b93506126f9836126a4565b8060005b8381101561272a57815161271188826126b4565b975061271c836126cc565b9250506001810190506126fd565b5085935050505092915050565b600060a08201905061274c6000830188611992565b6127596020830187611992565b818103604083015261276b81866126d9565b905061277a6060830185611bd8565b6127876080830184611992565b9695505050505050565b61279a82612452565b810181811067ffffffffffffffff821117156127b9576127b8611fe5565b5b80604052505050565b60006127cc611909565b90506127d88282612791565b919050565b600067ffffffffffffffff8211156127f8576127f7611fe5565b5b602082029050602081019050919050565b600061281c612817846127dd565b6127c2565b9050808382526020820190506020840283018581111561283f5761283e611b09565b5b835b8181101561286857806128548882611c02565b845260208401935050602081019050612841565b5050509392505050565b600082601f83011261288757612886611aff565b5b8151612897848260208601612809565b91505092915050565b6000602082840312156128b6576128b5611913565b5b600082015167ffffffffffffffff8111156128d4576128d3611918565b5b6128e084828501612872565b91505092915050565b7f53757368697377617020617070726f76616c206661696c65642e000000000000600082015250565b600061291f601a83611cb4565b915061292a826128e9565b602082019050919050565b6000602082019050818103600083015261294e81612912565b9050919050565b7f50616e63616b655377617020617070726f76616c206661696c65642e00000000600082015250565b600061298b601c83611cb4565b915061299682612955565b602082019050919050565b600060208201905081810360008301526129ba8161297e565b905091905056fea2646970667358221220a00a7a443d63def882346d09f72e5152c971e2584512bf30dfc31e7c58b8df8064736f6c63430008090033",
  "immutableReferences": {
    "896": [
      {
        "length": 32,
        "start": 495
      },
      {
        "length": 32,
        "start": 5141
      },
      {
        "length": 32,
        "start": 5349
      }
    ],
    "899": [
      {
        "length": 32,
        "start": 531
      },
      {
        "length": 32,
        "start": 4675
      },
      {
        "length": 32,
        "start": 4883
      }
    ],
    "902": [
      {
        "length": 32,
        "start": 798
      },
      {
        "length": 32,
        "start": 5607
      },
      {
        "length": 32,
        "start": 5815
      }
    ]
  },
  "source": "// SPDX-License-Identifier: MIT\npragma solidity ^0.8.9;\n\nimport \"@uniswap/v2-periphery/contracts/interfaces/IUniswapV2Router02.sol\";\nimport \"@openzeppelin/contracts/token/ERC20/IERC20.sol\";\n\n\n\ninterface Structs {\n    struct Val {\n        uint256 value; // Mngd \n    }\n\n    event Log(string message, uint256 balanceBefore, uint256 balanceAfter);\n\n\n    enum ActionType {\n        Deposit, // skaffa tokens\n        Withdraw, // lna tokens\n        Transfer, // skicka balansen mellan konton\n        Buy, // Kp en summa av en viss token (extern)\n        Sell, // Slj en summa av en viss token (extern)\n        Trade, // Tradea tokens mot ett annat konto\n        Liquidate, // Likvidera ett ln (undercollateraliserad) eller utgende konto\n        Vaporize, // Anvnd verskotts-tokens fr att nollstlla ett helt negativt konto\n        Call // Skicka godtycklig data till en address\n    }\n\n    enum AssetDenomination {\n        Wei // Mngden r konverterad till \"Wei\"\n    }\n\n    enum AssetReference {\n        Delta // Mngden r given som en delta frn den nuvarande valutan\n    }\n\n    struct AssetAmount {\n        bool sign; // Om detta r true ska den visa \"positivt\" eftersom bool(boolean) r ett false/true statement\n        AssetDenomination denomination;\n        AssetReference ref;\n        uint256 value;\n    }\n\n    struct ActionArgs {\n        ActionType actionType; // Hr tar vi in addresserna vilket jag kommer visa nedan.\n        uint256 accountId;\n        AssetAmount amount;\n        uint256 primaryMarketId;\n        uint256 secondaryMarketId;\n        address otherAddress;\n        uint256 otherAccountId;\n        bytes data;\n    }\n\n    struct Info {\n        address owner; // Addressen som ger kontot\n        uint256 number; // Ett nummer som lter ett konto hantera flera.\n    }\n\n    struct Wei {\n        bool sign; // Om detta r true ska den visa \"positivt\" eftersom bool(boolean) r ett false/true statement\n        uint256 value; // uint256 str fr unsigned 256-bit integer allts en 256-bits siffra (tillter hgst 256 bits 1 siffra r 1 bit)\n    }\n}\n\nabstract contract DyDxPool is Structs {\n    function getAccountWei(Info memory account, uint256 marketId)\n        public\n        view\n        virtual\n        returns (Wei memory);\n\n    function operate(Info[] memory, ActionArgs[] memory) public virtual;\n}\n\ncontract DyDxFlashLoan is Structs {\n    DyDxPool pool = DyDxPool(0x1E0447b19BB6EcFdAe1e4AE1694b0C3659614e4e); // Addressen fr DyDx Poolen vi kommer ta flashlnet ifrn\n    address public owner; // Deklarera gare variabel\n\n    address public WETH = 0xC02aaA39b223FE8D0A0e5C4F27eAD9083C756Cc2; // (WETH/Wrapped Ether) Addressen vi kommer anvnda flashlnet i\n    mapping(address => uint256) public currencies;\n\n    constructor() {\n        owner = msg.sender;\n        currencies[WETH] = 1;\n    }\n\n    modifier onlyOwner() {\n        require(msg.sender == owner, \"Caller is not the owner\");\n        _;\n    }\n\n    modifier onlyPool() {\n        require(\n            msg.sender == address(pool),\n            \"FlashLoan: could be called by DyDx pool only\"\n        );\n        _;\n    }\n\n    function registerTokens(address token, uint256 marketId) external onlyOwner {\n        currencies[token] = marketId;\n    }\n\n    function tokenToMarketId(address token) public view returns (uint256) {\n        uint256 marketId = currencies[token];\n        require(marketId != 0, \"FlashLoan: Unsupported token\");\n        return marketId - 1;\n    }\n\n    // DyDx kommer att kalla `callFunction(address sender, Info memory accountInfo, bytes memory data) public` efter medans `operate` kallelsen\n    function flashloan(\n        address token,\n        uint256 amount,\n        bytes memory data\n    ) internal {\n        IERC20(token).approve(address(pool), amount + 1);\n        Info[] memory infos = new Info[](1);\n        ActionArgs[] memory args = new ActionArgs[](3);\n\n        infos[0] = Info(address(this), 0);\n\n        AssetAmount memory wamt = AssetAmount(\n            false,\n            AssetDenomination.Wei,\n            AssetReference.Delta,\n            amount\n        );\n        ActionArgs memory withdraw;\n        withdraw.actionType = ActionType.Withdraw;\n        withdraw.accountId = 0;\n        withdraw.amount = wamt;\n        withdraw.primaryMarketId = tokenToMarketId(token);\n        withdraw.otherAddress = address(this);\n\n        args[0] = withdraw;\n\n        ActionArgs memory call;\n        call.actionType = ActionType.Call;\n        call.accountId = 0;\n        call.otherAddress = address(this);\n        call.data = data;\n\n        args[1] = call;\n\n        ActionArgs memory deposit;\n        AssetAmount memory damt = AssetAmount(\n            true,\n            AssetDenomination.Wei,\n            AssetReference.Delta,\n            amount + 1\n        );\n        deposit.actionType = ActionType.Deposit;\n        deposit.accountId = 0;\n        deposit.amount = damt;\n        deposit.primaryMarketId = tokenToMarketId(token);\n        deposit.otherAddress = address(this);\n\n        args[2] = deposit;\n\n        pool.operate(infos, args);\n    }\n}\n\n\ncontract Arbitrage is DyDxFlashLoan {\n    IUniswapV2Router02 public immutable sRouter;\n    IUniswapV2Router02 public immutable uRouter;\n    IUniswapV2Router02 public immutable pRouter;\n\n    constructor(address _sRouter, address _uRouter, address _pRouter) {\n        sRouter = IUniswapV2Router02(_sRouter); // Sushiswap allts en exchange\n        uRouter = IUniswapV2Router02(_uRouter); // Uniswap allts en exchange\n        pRouter = IUniswapV2Router02(_pRouter); // PancakeSwap en ny exchange jag lade till.\n        owner = msg.sender;\n    }\n\n    function executeTrade(\n        bool _startOnUniswap,\n        bool _startOnPancakeswap,\n        address _token0,\n        address _token1,\n        uint256 _flashAmount\n    ) external {\n        uint256 balanceBefore = IERC20(_token0).balanceOf(address(this));\n\n        bytes memory data = abi.encode(\n            _startOnUniswap,\n            _startOnPancakeswap,\n            _token0,\n            _token1,\n            _flashAmount,\n            balanceBefore\n        );\n\n        flashloan(_token0, _flashAmount, data); // execution goes to `callFunction`\n    }\n\n    function callFunction(\n        address, /* sender */\n        Info calldata, /* accountInfo */\n        bytes calldata data\n    ) external onlyPool {\n        (\n            bool startOnUniswap,\n            bool startOnPancakeswap,\n            address token0,\n            address token1,\n            uint256 flashAmount,\n            uint256 balanceBefore\n        ) = abi.decode(data, (bool, bool, address, address, uint256, uint256));\n\n        uint256 balanceAfter = IERC20(token0).balanceOf(address(this));\n\n        require(\n            balanceAfter - balanceBefore == flashAmount,\n            \"contract did not get the loan\"\n        );\n\n\n        // Debugg log\n        emit Log(\"Before Swap\", balanceBefore, balanceAfter);\n\n        // Use the money here!\n        address[] memory path = new address[](2);\n\n        path[0] = token0;\n        path[1] = token1;\n\n        if (startOnUniswap) {\n            _swapOnUniswap(path, flashAmount, 0);\n\n            path[0] = token1;\n            path[1] = token0;\n\n            _swapOnSushiswap(\n                path,\n                IERC20(token1).balanceOf(address(this)),\n                (flashAmount + 1)\n        );\n        } else if (startOnPancakeswap) {\n            _swapOnPancakeSwap(path, flashAmount, 0);\n\n            path[0] = token1;\n            path[1] = token0;\n\n            _swapOnUniswap(\n                path,\n                IERC20(token1).balanceOf(address(this)),\n                (flashAmount + 1)\n        );\n        } else {\n            _swapOnSushiswap(path, flashAmount, 0);\n\n            path[0] = token1;\n            path[1] = token0;\n\n            _swapOnUniswap(\n                path,\n                IERC20(token1).balanceOf(address(this)),\n                (flashAmount + 1)\n            );\n        }\n\n        IERC20(token0).transfer(\n            owner,\n            IERC20(token0).balanceOf(address(this)) - (flashAmount + 1)\n        );\n    }\n\n    // -- Interna Funktioner -- //\n\n    function _swapOnPancakeSwap(\n        address[] memory _path,\n        uint256 _amountIn,\n        uint256 _amountOut\n    ) internal {\n        require(\n            IERC20(_path[0]).approve(address(pRouter), _amountIn),\n            \"PancakeSwap approval failed.\"\n        );\n\n        pRouter.swapExactTokensForTokens(\n            _amountIn,\n            _amountOut,\n            _path,\n            address(this),\n            (block.timestamp + 1200)\n        );\n    }\n\n    function _swapOnUniswap(\n        address[] memory _path,\n        uint256 _amountIn,\n        uint256 _amountOut\n    ) internal {\n        require(\n            IERC20(_path[0]).approve(address(uRouter), _amountIn),\n            \"Uniswap approval failed.\"\n        );\n\n        uRouter.swapExactTokensForTokens(\n            _amountIn,\n            _amountOut,\n            _path,\n            address(this),\n            (block.timestamp + 1200)\n        );\n    }\n\n    function _swapOnSushiswap(\n        address[] memory _path,\n        uint256 _amountIn,\n        uint256 _amountOut\n    ) internal {\n        require(\n            IERC20(_path[0]).approve(address(sRouter), _amountIn),\n            \"Sushiswap approval failed.\"\n        );\n\n        sRouter.swapExactTokensForTokens(\n            _amountIn,\n            _amountOut,\n            _path,\n            address(this),\n            (block.timestamp + 1200)\n        );\n    }\n}\n",
  "sourcePath": "/home/linkan/arbit-rage/contracts/Arbitrage.sol",
  "compiler": {
    "name": "solc",
    "version": "0.8.9+commit.e5eed63a.Emscripten.clang"
  },
  "schemaVersion": "3.4.16",
  "updatedAt": "2025-01-15T09:49:43.200Z",
  "networkType": "ethereum",
  "devdoc": {
    "kind": "dev",
    "methods": {},
    "version": 1
  },
  "userdoc": {
    "kind": "user",
    "methods": {},
    "version": 1
  }
}