{
  "contractName": "DyDxFlashLoan",
  "abi": [
    {
      "inputs": [],
      "stateMutability": "nonpayable",
      "type": "constructor"
    },
    {
      "anonymous": false,
      "inputs": [
        {
          "indexed": false,
          "internalType": "string",
          "name": "message",
          "type": "string"
        },
        {
          "indexed": false,
          "internalType": "uint256",
          "name": "balanceBefore",
          "type": "uint256"
        },
        {
          "indexed": false,
          "internalType": "uint256",
          "name": "balanceAfter",
          "type": "uint256"
        }
      ],
      "name": "Log",
      "type": "event"
    },
    {
      "inputs": [],
      "name": "WETH",
      "outputs": [
        {
          "internalType": "address",
          "name": "",
          "type": "address"
        }
      ],
      "stateMutability": "view",
      "type": "function"
    },
    {
      "inputs": [
        {
          "internalType": "address",
          "name": "",
          "type": "address"
        }
      ],
      "name": "currencies",
      "outputs": [
        {
          "internalType": "uint256",
          "name": "",
          "type": "uint256"
        }
      ],
      "stateMutability": "view",
      "type": "function"
    },
    {
      "inputs": [],
      "name": "owner",
      "outputs": [
        {
          "internalType": "address",
          "name": "",
          "type": "address"
        }
      ],
      "stateMutability": "view",
      "type": "function"
    },
    {
      "inputs": [
        {
          "internalType": "address",
          "name": "token",
          "type": "address"
        },
        {
          "internalType": "uint256",
          "name": "marketId",
          "type": "uint256"
        }
      ],
      "name": "registerTokens",
      "outputs": [],
      "stateMutability": "nonpayable",
      "type": "function"
    },
    {
      "inputs": [
        {
          "internalType": "address",
          "name": "token",
          "type": "address"
        }
      ],
      "name": "tokenToMarketId",
      "outputs": [
        {
          "internalType": "uint256",
          "name": "",
          "type": "uint256"
        }
      ],
      "stateMutability": "view",
      "type": "function"
    }
  ],
  "bytecode": "0x6080604052731e0447b19bb6ecfdae1e4ae1694b0c3659614e4e6000806101000a81548173ffffffffffffffffffffffffffffffffffffffff021916908373ffffffffffffffffffffffffffffffffffffffff16021790555073c02aaa39b223fe8d0a0e5c4f27ead9083c756cc2600260006101000a81548173ffffffffffffffffffffffffffffffffffffffff021916908373ffffffffffffffffffffffffffffffffffffffff1602179055503480156100b957600080fd5b5033600160006101000a81548173ffffffffffffffffffffffffffffffffffffffff021916908373ffffffffffffffffffffffffffffffffffffffff160217905550600160036000600260009054906101000a900473ffffffffffffffffffffffffffffffffffffffff1673ffffffffffffffffffffffffffffffffffffffff1673ffffffffffffffffffffffffffffffffffffffff168152602001908152602001600020819055506105ca806101716000396000f3fe608060405234801561001057600080fd5b50600436106100575760003560e01c80636036cba31461005c57806389c966c51461008c5780638da5cb5b146100a8578063ad5c4648146100c6578063b8268788146100e4575b600080fd5b61007660048036038101906100719190610351565b610114565b6040516100839190610397565b60405180910390f35b6100a660048036038101906100a191906103de565b61012c565b005b6100b0610204565b6040516100bd919061042d565b60405180910390f35b6100ce61022a565b6040516100db919061042d565b60405180910390f35b6100fe60048036038101906100f99190610351565b610250565b60405161010b9190610397565b60405180910390f35b60036020528060005260406000206000915090505481565b600160009054906101000a900473ffffffffffffffffffffffffffffffffffffffff1673ffffffffffffffffffffffffffffffffffffffff163373ffffffffffffffffffffffffffffffffffffffff16146101bc576040517f08c379a00000000000000000000000000000000000000000000000000000000081526004016101b3906104a5565b60405180910390fd5b80600360008473ffffffffffffffffffffffffffffffffffffffff1673ffffffffffffffffffffffffffffffffffffffff168152602001908152602001600020819055505050565b600160009054906101000a900473ffffffffffffffffffffffffffffffffffffffff1681565b600260009054906101000a900473ffffffffffffffffffffffffffffffffffffffff1681565b600080600360008473ffffffffffffffffffffffffffffffffffffffff1673ffffffffffffffffffffffffffffffffffffffff16815260200190815260200160002054905060008114156102d9576040517f08c379a00000000000000000000000000000000000000000000000000000000081526004016102d090610511565b60405180910390fd5b6001816102e69190610560565b915050919050565b600080fd5b600073ffffffffffffffffffffffffffffffffffffffff82169050919050565b600061031e826102f3565b9050919050565b61032e81610313565b811461033957600080fd5b50565b60008135905061034b81610325565b92915050565b600060208284031215610367576103666102ee565b5b60006103758482850161033c565b91505092915050565b6000819050919050565b6103918161037e565b82525050565b60006020820190506103ac6000830184610388565b92915050565b6103bb8161037e565b81146103c657600080fd5b50565b6000813590506103d8816103b2565b92915050565b600080604083850312156103f5576103f46102ee565b5b60006104038582860161033c565b9250506020610414858286016103c9565b9150509250929050565b61042781610313565b82525050565b6000602082019050610442600083018461041e565b92915050565b600082825260208201905092915050565b7f43616c6c6572206973206e6f7420746865206f776e6572000000000000000000600082015250565b600061048f601783610448565b915061049a82610459565b602082019050919050565b600060208201905081810360008301526104be81610482565b9050919050565b7f466c6173684c6f616e3a20556e737570706f7274656420746f6b656e00000000600082015250565b60006104fb601c83610448565b9150610506826104c5565b602082019050919050565b6000602082019050818103600083015261052a816104ee565b9050919050565b7f4e487b7100000000000000000000000000000000000000000000000000000000600052601160045260246000fd5b600061056b8261037e565b91506105768361037e565b92508282101561058957610588610531565b5b82820390509291505056fea2646970667358221220e099523c905b15a04e5521b7e5217ea34f07bec45e4117c5aec33d6428f7439964736f6c63430008090033",
  "immutableReferences": {},
  "source": "// SPDX-License-Identifier: MIT\npragma solidity ^0.8.9;\n\nimport \"@uniswap/v2-periphery/contracts/interfaces/IUniswapV2Router02.sol\";\nimport \"@openzeppelin/contracts/token/ERC20/IERC20.sol\";\n\n\n\ninterface Structs {\n    struct Val {\n        uint256 value; // Mngd \n    }\n\n    event Log(string message, uint256 balanceBefore, uint256 balanceAfter);\n\n\n    enum ActionType {\n        Deposit, // skaffa tokens\n        Withdraw, // lna tokens\n        Transfer, // skicka balansen mellan konton\n        Buy, // Kp en summa av en viss token (extern)\n        Sell, // Slj en summa av en viss token (extern)\n        Trade, // Tradea tokens mot ett annat konto\n        Liquidate, // Likvidera ett ln (undercollateraliserad) eller utgende konto\n        Vaporize, // Anvnd verskotts-tokens fr att nollstlla ett helt negativt konto\n        Call // Skicka godtycklig data till en address\n    }\n\n    enum AssetDenomination {\n        Wei // Mngden r konverterad till \"Wei\"\n    }\n\n    enum AssetReference {\n        Delta // Mngden r given som en delta frn den nuvarande valutan\n    }\n\n    struct AssetAmount {\n        bool sign; // Om detta r true ska den visa \"positivt\" eftersom bool(boolean) r ett false/true statement\n        AssetDenomination denomination;\n        AssetReference ref;\n        uint256 value;\n    }\n\n    struct ActionArgs {\n        ActionType actionType; // Hr tar vi in addresserna vilket jag kommer visa nedan.\n        uint256 accountId;\n        AssetAmount amount;\n        uint256 primaryMarketId;\n        uint256 secondaryMarketId;\n        address otherAddress;\n        uint256 otherAccountId;\n        bytes data;\n    }\n\n    struct Info {\n        address owner; // Addressen som ger kontot\n        uint256 number; // Ett nummer som lter ett konto hantera flera.\n    }\n\n    struct Wei {\n        bool sign; // Om detta r true ska den visa \"positivt\" eftersom bool(boolean) r ett false/true statement\n        uint256 value; // uint256 str fr unsigned 256-bit integer allts en 256-bits siffra (tillter hgst 256 bits 1 siffra r 1 bit)\n    }\n}\n\nabstract contract DyDxPool is Structs {\n    function getAccountWei(Info memory account, uint256 marketId)\n        public\n        view\n        virtual\n        returns (Wei memory);\n\n    function operate(Info[] memory, ActionArgs[] memory) public virtual;\n}\n\ncontract DyDxFlashLoan is Structs {\n    DyDxPool pool = DyDxPool(0x1E0447b19BB6EcFdAe1e4AE1694b0C3659614e4e); // Addressen fr DyDx Poolen vi kommer ta flashlnet ifrn\n    address public owner; // Deklarera gare variabel\n\n    address public WETH = 0xC02aaA39b223FE8D0A0e5C4F27eAD9083C756Cc2; // (WETH/Wrapped Ether) Addressen vi kommer anvnda flashlnet i\n    mapping(address => uint256) public currencies;\n\n    constructor() {\n        owner = msg.sender;\n        currencies[WETH] = 1;\n    }\n\n    modifier onlyOwner() {\n        require(msg.sender == owner, \"Caller is not the owner\");\n        _;\n    }\n\n    modifier onlyPool() {\n        require(\n            msg.sender == address(pool),\n            \"FlashLoan: could be called by DyDx pool only\"\n        );\n        _;\n    }\n\n    function registerTokens(address token, uint256 marketId) external onlyOwner {\n        currencies[token] = marketId;\n    }\n\n    function tokenToMarketId(address token) public view returns (uint256) {\n        uint256 marketId = currencies[token];\n        require(marketId != 0, \"FlashLoan: Unsupported token\");\n        return marketId - 1;\n    }\n\n    // DyDx kommer att kalla `callFunction(address sender, Info memory accountInfo, bytes memory data) public` efter medans `operate` kallelsen\n    function flashloan(\n        address token,\n        uint256 amount,\n        bytes memory data\n    ) internal {\n        IERC20(token).approve(address(pool), amount + 1);\n        Info[] memory infos = new Info[](1);\n        ActionArgs[] memory args = new ActionArgs[](3);\n\n        infos[0] = Info(address(this), 0);\n\n        AssetAmount memory wamt = AssetAmount(\n            false,\n            AssetDenomination.Wei,\n            AssetReference.Delta,\n            amount\n        );\n        ActionArgs memory withdraw;\n        withdraw.actionType = ActionType.Withdraw;\n        withdraw.accountId = 0;\n        withdraw.amount = wamt;\n        withdraw.primaryMarketId = tokenToMarketId(token);\n        withdraw.otherAddress = address(this);\n\n        args[0] = withdraw;\n\n        ActionArgs memory call;\n        call.actionType = ActionType.Call;\n        call.accountId = 0;\n        call.otherAddress = address(this);\n        call.data = data;\n\n        args[1] = call;\n\n        ActionArgs memory deposit;\n        AssetAmount memory damt = AssetAmount(\n            true,\n            AssetDenomination.Wei,\n            AssetReference.Delta,\n            amount + 1\n        );\n        deposit.actionType = ActionType.Deposit;\n        deposit.accountId = 0;\n        deposit.amount = damt;\n        deposit.primaryMarketId = tokenToMarketId(token);\n        deposit.otherAddress = address(this);\n\n        args[2] = deposit;\n\n        pool.operate(infos, args);\n    }\n}\n\n\ncontract Arbitrage is DyDxFlashLoan {\n    IUniswapV2Router02 public immutable sRouter;\n    IUniswapV2Router02 public immutable uRouter;\n    IUniswapV2Router02 public immutable pRouter;\n\n    constructor(address _sRouter, address _uRouter, address _pRouter) {\n        sRouter = IUniswapV2Router02(_sRouter); // Sushiswap allts en exchange\n        uRouter = IUniswapV2Router02(_uRouter); // Uniswap allts en exchange\n        pRouter = IUniswapV2Router02(_pRouter); // PancakeSwap en ny exchange jag lade till.\n        owner = msg.sender;\n    }\n\n    function executeTrade(\n        bool _startOnUniswap,\n        bool _startOnPancakeswap,\n        address _token0,\n        address _token1,\n        uint256 _flashAmount\n    ) external {\n        uint256 balanceBefore = IERC20(_token0).balanceOf(address(this));\n\n        bytes memory data = abi.encode(\n            _startOnUniswap,\n            _startOnPancakeswap,\n            _token0,\n            _token1,\n            _flashAmount,\n            balanceBefore\n        );\n\n        flashloan(_token0, _flashAmount, data); // execution goes to `callFunction`\n    }\n\n    function callFunction(\n        address, /* sender */\n        Info calldata, /* accountInfo */\n        bytes calldata data\n    ) external onlyPool {\n        (\n            bool startOnUniswap,\n            bool startOnPancakeswap,\n            address token0,\n            address token1,\n            uint256 flashAmount,\n            uint256 balanceBefore\n        ) = abi.decode(data, (bool, bool, address, address, uint256, uint256));\n\n        uint256 balanceAfter = IERC20(token0).balanceOf(address(this));\n\n        require(\n            balanceAfter - balanceBefore == flashAmount,\n            \"contract did not get the loan\"\n        );\n\n\n        // Debugg log\n        emit Log(\"Before Swap\", balanceBefore, balanceAfter);\n\n        // Use the money here!\n        address[] memory path = new address[](2);\n\n        path[0] = token0;\n        path[1] = token1;\n\n        if (startOnUniswap) {\n            _swapOnUniswap(path, flashAmount, 0);\n\n            path[0] = token1;\n            path[1] = token0;\n\n            _swapOnSushiswap(\n                path,\n                IERC20(token1).balanceOf(address(this)),\n                (flashAmount + 1)\n        );\n        } else if (startOnPancakeswap) {\n            _swapOnPancakeSwap(path, flashAmount, 0);\n\n            path[0] = token1;\n            path[1] = token0;\n\n            _swapOnUniswap(\n                path,\n                IERC20(token1).balanceOf(address(this)),\n                (flashAmount + 1)\n        );\n        } else {\n            _swapOnSushiswap(path, flashAmount, 0);\n\n            path[0] = token1;\n            path[1] = token0;\n\n            _swapOnUniswap(\n                path,\n                IERC20(token1).balanceOf(address(this)),\n                (flashAmount + 1)\n            );\n        }\n\n        IERC20(token0).transfer(\n            owner,\n            IERC20(token0).balanceOf(address(this)) - (flashAmount + 1)\n        );\n    }\n\n    // -- Interna Funktioner -- //\n\n    function _swapOnPancakeSwap(\n        address[] memory _path,\n        uint256 _amountIn,\n        uint256 _amountOut\n    ) internal {\n        require(\n            IERC20(_path[0]).approve(address(pRouter), _amountIn),\n            \"PancakeSwap approval failed.\"\n        );\n\n        pRouter.swapExactTokensForTokens(\n            _amountIn,\n            _amountOut,\n            _path,\n            address(this),\n            (block.timestamp + 1200)\n        );\n    }\n\n    function _swapOnUniswap(\n        address[] memory _path,\n        uint256 _amountIn,\n        uint256 _amountOut\n    ) internal {\n        require(\n            IERC20(_path[0]).approve(address(uRouter), _amountIn),\n            \"Uniswap approval failed.\"\n        );\n\n        uRouter.swapExactTokensForTokens(\n            _amountIn,\n            _amountOut,\n            _path,\n            address(this),\n            (block.timestamp + 1200)\n        );\n    }\n\n    function _swapOnSushiswap(\n        address[] memory _path,\n        uint256 _amountIn,\n        uint256 _amountOut\n    ) internal {\n        require(\n            IERC20(_path[0]).approve(address(sRouter), _amountIn),\n            \"Sushiswap approval failed.\"\n        );\n\n        sRouter.swapExactTokensForTokens(\n            _amountIn,\n            _amountOut,\n            _path,\n            address(this),\n            (block.timestamp + 1200)\n        );\n    }\n}\n",
  "sourcePath": "/home/linkan/arbit-rage/contracts/Arbitrage.sol",
  "compiler": {
    "name": "solc",
    "version": "0.8.9+commit.e5eed63a.Emscripten.clang"
  },
  "schemaVersion": "3.4.16",
  "updatedAt": "2025-01-15T09:48:56.017Z",
  "devdoc": {
    "kind": "dev",
    "methods": {},
    "version": 1
  },
  "userdoc": {
    "kind": "user",
    "methods": {},
    "version": 1
  }
}